S012000050726F796563746F20322E737265636B
S11300000C9434000C9451000C9451000C94510045
S11300100C94E4000C9451000C9451000C94510085
S11300200C9451000C9451000C9451000C94510008
S11300300C9451000C94C2000C9451000C94510087
S11300400C9451000C9451000C9451000C945100E8
S11300500C9451000C94F6010C9451000C94510032
S11300600C9451000C94510011241FBECFEFD8E022
S1130070DEBFCDBF11E0A0E0B1E0E4E8F7E002C0EC
S113008005900D92A230B107D9F721E0A2E0B1E0CA
S113009001C01D92AB30B207E1F70E94B9010C9484
S11300A0C0030C940000ECE7F0E0108280818064CF
S11300B0808380818F778083808180628083EAE778
S11300C0F0E0808180688083808188608083808183
S11300D0846080830895F894E1E6F0E080E880830A
S11300E083E08083809368008FE080936C0090E2CB
S11300F090936B0088B985B1806285B917B840E0E8
S113010051E060E081E00E94500240E051E060E094
S113011080E00E948D0240E850E060E081E00E94AF
S1130120CA0240E850E060E080E00E942C03109294
S1130130800081E08093810080936F0080E09FEFD6
S113014090938500809384008AB184698AB90E945F
S1130150530078940895ECE7F0E09081907F9083C9
S1130160893008F088E0863010F480937E00ECE754
S1130170F0E09081892B8083EAE7F0E0808180645D
S1130180808308951F920F920FB60F9211248F93BC
S113019080910A01882319F0815080930A0180918B
S11301A00601882321F081508093060103C08BB19E
S11301B08F778BB910928500109284008F910F90E5
S11301C00FBE0F901F9018951F920F920FB60F92AB
S11301D011242F933F934F935F936F937F938F9348
S11301E09F93AF93BF93EF93FF93CF93DF9300D08D
S11301F000D0CDB7DEB790910A0191116CC095E0A3
S113020090930A01309927C0809107018F5F8093F2
S11302100701843010F0109207018BB18B7E8BB9EB
S11302208BB190910701292F217030E0220F331FE9
S1130230220F331F282B2BB92BB1909107019270F9
S1130240892F90E0880F991F880F991F880F991F95
S1130250822B8BB92EC096B1969521E09227492F17
S1130260417050E090910901892F90E0809590951C
S113027084239523892BE9F085E0809306018BB1D3
S113028080688BB9809105018983809104018A83F8
S1130290809103018B83809102018C83609107011B
S11302A0660F660F70E044E050E0CE0101960E94B4
S11302B0A803329910C080910901882331F08BB1D1
S11302C08F778BB91092090106C08BB180688BB906
S11302D081E0809309010F900F900F900F90DF91B0
S11302E0CF91FF91EF91BF91AF919F918F917F91AA
S11302F06F915F914F913F912F910F900FBE0F908F
S11303001F901895EF92FF920F931F93CF93DF9353
S11303107B018A01E901969587959695879596952F
S11303208795895F0E949203C70196958795969554
S1130330879596958795895F0E949503C801929544
S113034082958F7089279F7089278C5F0E948E0306
S1130350CE01929582958F7089279F7089278C5F33
S11303600E949003DF91CF911F910F91FF90EF9026
S11303700895CF93DF9300D000D0CDB7DEB70E94AD
S11303806B0080910901811117C004E010E010C0D6
S113039000930001802F0E94AB002FE58AEE90E0CD
S11303A0215080409040E1F700C000000F5F1F4FD4
S11303B0083011056CF3E5CF882319F38BB18068FD
S11303C08BB960910701660F660F70E044E050E05E
S11303D0CE0101960E9498036A814B8170E0898165
S11303E050E09B0190E00E948201CBCF1F920F92BC
S11303F00FB60F9211242F933F934F935F936F93F4
S11304007F938F939F93AF93BF93EF93FF93F8944E
S113041080910001853029F4809179008093050151
S113042014C0843029F480917900809304010DC0B4
S1130430863029F4809179008093030106C08730C7
S113044021F48091790080930201909109018091B7
S11304500801892B71F42091020130E040910301DD
S113046050E06091040170E08091050190E00E94E9
S113047082017894EAE7F0E0808180618083FF91D3
S1130480EF91BF91AF919F918F917F916F915F9108
S11304904F913F912F910F900FBE0F901F90189581
S11304A09AB190649AB9882311F014BC15BC84B530
S11304B0806884BD662319F084B5806484BD84B5E6
S11304C0836084BD40345105C1F038F44130510596
S11304D061F04830510569F01CC0411581E05807AE
S11304E081F04115544089F014C085B5816085BD03
S11304F0089585B5826085BD089585B5836085BD01
S1130500089585B5846085BD089585B5856085BDEC
S1130510089585B5856085BD08959AB190629AB9AC
S1130520882311F014BC15BC84B5806284BD662395
S113053019F084B5806184BD84B5836084BD403482
S11305405105C1F038F44130510561F0483051058E
S113055069F01CC0411581E0580781F041155440F1
S113056089F014C085B5816085BD089585B5826024
S113057085BD089585B5836085BD089585B584607E
S113058085BD089585B5856085BD089585B585606B
S113059085BD089594B1986094B9882321F0109290
S11305A0B0001092B100E0EBF0E0808180688083BD
S11305B0662319F0808180648083E0EBF0E0808121
S11305C0836080834034510549F150F4483051052B
S11305D0C9F040325105E1F041305105B9F50CC084
S11305E0411581E0580731F1411584E0580741F184
S11305F04038510559F518C0E1EBF0E08081816085
S113060080830895E1EBF0E0808182608083089527
S1130610E1EBF0E08081836080830895E1EBF0E01A
S11306208081846080830895E1EBF0E080818560BF
S113063080830895E1EBF0E08081866080830895F3
S1130640E1EBF0E08081876080830895E1EBF0E0E6
S113065080818760808308959AB198609AB98823CD
S113066021F01092B0001092B100E0EBF0E0808134
S113067080628083662319F0808180618083E0EB4F
S1130680F0E08081836080834034510549F150F467
S113069048305105C9F040325105E1F0413051056F
S11306A0B9F50CC0411581E0580731F1411584E0DA
S11306B0580741F14038510559F518C0E1EBF0E015
S11306C08081816080830895E1EBF0E08081826025
S11306D080830895E1EBF0E0808183608083089556
S11306E0E1EBF0E08081846080830895E1EBF0E049
S11306F08081856080830895E1EBF0E080818660ED
S113070080830895E1EBF0E0808187608083089521
S1130710E1EBF0E0808187608083089587BD0895D0
S113072088BD08958093B30008958093B40008951C
S1130730DC01CB01FC01F999FECF06C0F2BDE1BD9D
S1130740F89A319600B40D9241505040B8F708958C
S1130750DC01CB0103C02D910E94B30341505040F2
S1130760D0F70895262FF999FECF1FBA92BD81BD07
S113077020BD0FB6F894FA9AF99A0FBE019608951F
S1070780F894FFCF17
S1050784060069
S9030000FC
