S012000050726F796563746F20322E737265636B
S11300000C9434000C9451000C9451000C94AB00EB
S11300100C94CE000C9451000C9451000C9451009B
S11300200C9451000C9451000C9451000C94510008
S11300300C9451000C9482000C9451000C945100C7
S11300400C9451000C9451000C9451000C945100E8
S11300500C9451000C94AF010C9451000C94510079
S11300600C9451000C94510011241FBECFEFD8E022
S1130070DEBFCDBF11E0A0E0B1E0E8E0FAE002C0ED
S113008005900D92AC31B107D9F721E0ACE1B1E0B4
S113009001C01D92A832B207E1F70E94B3020C948A
S11300A002050C940000ECE7F0E01082808180648B
S11300B0808380818F778083808180628083EAE778
S11300C0F0E0808180688083808188608083808183
S11300D0846080830895ECE7F0E09081907F9083C2
S11300E0893008F088E0863010F480937E00ECE7D5
S11300F0F0E09081892B8083EAE7F0E080818064DE
S1130100808308951F920F920FB60F9211248F933C
S113011080912701882319F08150809327018091D1
S11301202601882319F081508093260180912001B3
S1130130882321F081508093200103C08BB18F77F5
S11301408BB910928500109284008F910F900FBE8E
S11301500F901F9018951F920F920FB60F921124B3
S11301608F9380912601811113C08AE08093260128
S113017080912201882331F085B18F7E85B9109258
S1130180220106C085B1806185B981E08093220196
S11301908F910F900FBE0F901F9018951F920F9282
S11301A00FB60F9211242F933F934F935F936F9346
S11301B07F938F939F93AF93BF93EF93FF93CF93CB
S11301C0DF9300D000D0CDB7DEB790912701911115
S11301D06CC098E090932701309927C08091210149
S11301E08F5F80932101843010F0109221018BB134
S11301F08B7E8BB98BB190912101292F217030E036
S1130200220F331F220F331F282B2BB92BB19091B0
S113021021019270892F90E0880F991F880F991FF0
S1130220880F991F822B8BB92EC096B1969521E029
S11302309227492F417050E090912301892F90E03B
S11302408095909584239523892BE9F085E080930C
S113025020018BB180688BB980911F0189838091C3
S11302601E018A8380911D018B8380911C018C83E4
S113027060912101660F660F70E044E050E0CE010A
S113028001960E94EA04329910C0809123018823C8
S113029031F08BB18F778BB91092230106C08BB1EB
S11302A080688BB981E0809323010F900F900F90A9
S11302B00F90DF91CF91FF91EF91BF91AF919F91FB
S11302C08F917F916F915F914F913F912F910F90FB
S11302D00FBE0F901F901895EF92FF920F931F93EC
S11302E0CF93DF93EB017A018901929582958F7008
S11302F089279F708927895F0E949D04CE0192956A
S113030082958F7089279F708927895F0E94A00436
S11303109701ABEABAEA0E94B7049695879592953D
S113032082958F7089279F708927875F0E9499041F
S11303309801A5E9B7ED0E94B70496958795929523
S113034082958F7089279F7089278C5F0E949B04F8
S1130350DF91CF911F910F91FF90EF9008951F921D
S11303600F920FB60F9211242F933F934F935F93E5
S11303706F937F938F939F93AF93BF93EF93FF9369
S1130380F89480911B01843029F480917900809342
S11303901F0114C0863029F48091790080931E01D6
S11303A00DC0853029F48091790080931D0106C029
S11303B0873021F48091790080931C01909123016E
S11303C080912201892B71F420911C0130E040912D
S11303D01D0150E060911E0170E080911F0190E0CA
S11303E00E946C017894EAE7F0E080818061808368
S11303F0FF91EF91BF91AF919F918F917F916F91F9
S11304005F914F913F912F910F900FBE0F901F90CE
S113041018958AB182608AB9E0ECF0E0108280819C
S113042082608083E1ECF0E01082808188698083BF
S1130430E2ECF0E0108280818660808389E190E0C4
S11304409093C5008093C4000895F894E1E6F0E029
S113045080E8808383E08083809368008FE08093CA
S11304606C0090E290936B0088B985B1806285B985
S113047017B840E051E060E081E00E945B0340E097
S113048051E060E080E00E94980340E850E060E0C2
S113049081E00E94D50340E850E060E080E00E94E3
S11304A037041092800081E08093810080936F0074
S11304B080E09FEF90938500809384008AB18469E3
S11304C08AB984B1806184B90E9453000E940902F0
S11304D0789408959091C00095FFFCCF8093C60056
S11304E008950F931F93CF938C01C0E003C00E9423
S11304F06A02CF5FF801EC0FF11D80818111F7CF03
S1130500CF911F910F9108951F93CF93DF93182FCD
S1130510C9E28C9FC12D1124C295CF7080E38C0F4A
S11305200E946A02D12F84E6C89FD0191124CDEC11
S1130530DC9FC12D1124C695C695C69580E38C0F0A
S11305400E946A02CC0F8C2F880F880FC80F8D2F42
S11305508C1B805D0E946A028AE00E946A02DF911D
S1130560CF911F910895CF93DF9300D000D0CDB7E2
S1130570DEB70E94250280912301811180C004E02E
S113058010E010C000931B01802F0E946B002FEB22
S113059084ED91E0215080409040E1F700C00000DC
S11305A00F5F1F4F083011056CF380912401909167
S11305B02501009709F05DC080911F0190E09C0126
S11305C0220F331F820F931F880F991F01E110E040
S11305D0B8010E94A304F62E85E191E00E94710205
S11305E08F2D0E94840280911E0190E09C01220FB5
S11305F0331F820F931F880F991FB8010E94A30411
S1130600F62E87E091E00E9471028F2D0E948402F1
S113061080911D0190E0880F991F880F991FB801E0
S11306200E94A3047B012CE3E20EF11C8DE091E017
S11306300E9471028E2D0E94840280911C0190E020
S11306409C01220F331F220F331F820F931FB80107
S11306500E94A304162F80E091E00E947102812F72
S11306600E94840288E090E0909325018093240105
S113067082CF019790932501809324017CCF882316
S113068009F479CF8BB180688BB960912101660F31
S1130690660F70E044E050E0CE0101960E94DA0457
S11306A02C814B816A81898130E050E070E090E0D8
S11306B00E946C0160CF9AB190649AB9882311F0BA
S11306C014BC15BC84B5806884BD662319F084B558
S11306D0806484BD84B5836084BD40345105C1F019
S11306E038F44130510561F04830510569F01CC0BF
S11306F0411581E0580781F04115544089F014C038
S113070085B5816085BD089585B5826085BD0895F0
S113071085B5836085BD089585B5846085BD0895DC
S113072085B5856085BD089585B5856085BD0895C9
S11307309AB190629AB9882311F014BC15BC84B59F
S1130740806284BD662319F084B5806184BD84B55C
S1130750836084BD40345105C1F038F44130510503
S113076061F04830510569F01CC0411581E058071B
S113077081F04115544089F014C085B5816085BD70
S1130780089585B5826085BD089585B5836085BD6E
S1130790089585B5846085BD089585B5856085BD5A
S11307A0089585B5856085BD089594B1986094B920
S11307B0882321F01092B0001092B100E0EBF0E039
S11307C0808180688083662319F0808180648083BF
S11307D0E0EBF0E08081836080834034510549F18F
S11307E050F448305105C9F040325105E1F0413030
S11307F05105B9F50CC0411581E0580731F1411597
S113080084E0580741F14038510559F518C0E1EB2F
S1130810F0E08081816080830895E1EBF0E08081E5
S1130820826080830895E1EBF0E0808183608083BF
S11308300895E1EBF0E08081846080830895E1EB2A
S1130840F0E08081856080830895E1EBF0E08081B1
S1130850866080830895E1EBF0E080818760808387
S11308600895E1EBF0E080818760808308959AB178
S113087098609AB9882321F01092B0001092B100C8
S1130880E0EBF0E0808180628083662319F0808150
S113089080618083E0EBF0E080818360808340347A
S11308A0510549F150F448305105C9F04032510521
S11308B0E1F041305105B9F50CC0411581E058070C
S11308C031F1411584E0580741F14038510559F59B
S11308D018C0E1EBF0E08081816080830895E1EB52
S11308E0F0E08081826080830895E1EBF0E0808114
S11308F0836080830895E1EBF0E0808184608083ED
S11309000895E1EBF0E08081856080830895E1EB58
S1130910F0E08081866080830895E1EBF0E08081DF
S1130920876080830895E1EBF0E0808187608083B5
S1130930089587BD089588BD08958093B3000895F0
S11309408093B400089597FB072E16F4009407D003
S113095077FD09D00E94C60407FC05D03EF49095AB
S113096081959F4F0895709561957F4F0895A29F3B
S1130970B001B39FC001A39F700D811D1124911D6F
S1130980B29F700D811D1124911D0895AA1BBB1BDC
S113099051E107C0AA1FBB1FA617B70710F0A61B7B
S11309A0B70B881F991F5A95A9F780959095BC019C
S11309B0CD010895DC01CB01FC01F999FECF06C0FD
S11309C0F2BDE1BDF89A319600B40D924150504009
S11309D0B8F70895DC01CB0103C02D910E94F50402
S11309E041505040D0F70895262FF999FECF1FBAF1
S11309F092BD81BD20BD0FB6F894FA9AF99A0FBE44
S10B0A0001960895F894FFCF5C
S1130A0850494E5A410A00434F444F0A00484F4D3B
S10F0A1842524F0A00424153450A0006B6
S9030000FC
